S0130000496F542D4661726D696E672E7372656314
S11300000C9434000C9451000C9451000C94510045
S11300100C9451000C9451000C9451000C94510018
S11300200C9451000C9451000C9451000C94510008
S11300300C9451000C9451000C9451000C945100F8
S11300400C9451000C9451000C9451000C945100E8
S11300500C9451000C9451000C9451000C945100D8
S11300600C9451000C94510011241FBECFEFD8E022
S1130070DEBFCDBF11E0A0E0B1E0E8E9F9E002C0E5
S113008005900D92A036B107D9F711E0A0E6B1E0D2
S113009001C01D92A236B107E1F70E94B3010C948E
S11300A0CA040C940000982F907F95B92898299839
S11300B02A9AE3ECF9E03197F1F700C000002A989E
S11300C090E082959295907F9827807F982785B9B4
S11300D0289829982A9A83EC99E00197F1F700C0AF
S11300E000002A980895CF93DF93C3E5D0E082E01F
S11300F090E0FE01099588E290E0FE01099586E012
S113010090E0FE0109958EE090E0FE01099580E8FB
S113011090E0FE010995DF91CF910895982F907F8B
S113012095B9289A29982A9AE3ECF9E03197F1F7DE
S113013000C000002A98E3ECF9E03197F1F700C021
S1130140000090E082959295907F9827807F982771
S113015085B9289A29982A9A83EC99E00197F1F7AE
S113016000C000002A980895CF93DF93EC018881A2
S1130170882331F021960E948E0089918823D9F733
S1130180DF91CF910895ECE7F0E080818064808373
S1130190EAE7F0E08081876880830895ECE7F0E087
S11301A09081987F892B8083EAE7F0E080818064E6
S11301B08083808186FDFDCF8091780090917900C5
S11301C008953D9A459887E893E10197F1F700C0B7
S11301D00000459A08953D983599FECF359BFECF92
S11301E03599FECF089588E090E0359BFECF2AE054
S11301F02A95F1F7359B0CC0209160013091610183
S1130200220F331F216030936101209360010AC0E3
S11302102091600130916101220F331F30936101FD
S1130220209360013599FECF0197F9F68091600122
S11302300895AF92BF92CF92DF92EF92FF920F9305
S11302401F93CF93DF93CDB7DEB764970FB6F894BF
S1130250DEBF0FBECDBF0E94E1000E94EB000E94F2
S1130260F300082F10E00E94F300E82EFF240E9400
S1130270F300C82EDD240E94F300A82EBB240E94A4
S1130280F30098012E0D3F1D2C0D3D1D2A0D3B1D25
S113029090E02817390729F080E091E00E94B4002B
S11302A051C0C801BE016F5F7F4F4AE050E00E9419
S11302B0850486E091E00E94B4008FEC0E94530014
S11302C0CE0101960E94B40000E111E0C8010E9431
S11302D0B400C701BE016F5F7F4F4AE050E00E9447
S11302E08504CE0101960E94B40082E191E00E944F
S11302F0B400C601BE016F5F7F4F4AE050E00E9428
S1130300850484E90E94530084E191E00E94B400D2
S113031083EA0E945300CE0101960E94B400C801F2
S11303200E94B400C501BE016F5F7F4F4AE050E0F8
S11303300E948504CE0101960E94B40083E291E0FC
S11303400E94B40064960FB6F894DEBF0FBECDBF12
S1130350DF91CF911F910F91FF90EF90DF90CF909D
S1130360BF90AF900895CF93DF93CDB7DEB7649776
S11303700FB6F894DEBF0FBECDBF8FEF84B90E94D5
S113038073000E94C3008CE00E94530005E211E058
S11303900F2EFAE2EF2EF1E0FF2EF02D0F2EF4E3F4
S11303A0CF2EF1E0DF2EF02D0F2EF4E4AF2EF1E08E
S11303B0BF2EF02D0F2EF4E58F2EF1E09F2EF02DA1
S11303C0C8010E94B40080E00E94CE009C01B901E3
S11303D0882777FD8095982F0E94960320E030E0CF
S11303E040E253E40E94220420E030E040E85AE373
S11303F00E942204462F572F682F792FCB01BA0170
S11304000E946303DC01CB01BE016F5F7F4F4AE0B2
S113041050E00E9485048FE80E945300CE010196AB
S11304200E94B40080EC0E945300C7010E94B400F3
S113043081E00E94CE00DC01BD01882777FD809514
S1130440982F0E94960320E030E040E651E40E9499
S1130450220420E030EC4FE754E40E94FB02462FD4
S1130460572F682F792FCB01BA010E946303DC0157
S1130470CB01BE016F5F7F4F4AE050E00E948504CC
S11304808FEC0E945300CE0101960E94B40084E9CF
S11304900E945300C6010E94B40082E00E94CE0074
S11304A09C01B901882777FD8095982F0E949603B7
S11304B020E030E048EC52E40E94220420E030ECDA
S11304C049E154E40E94FB02462F572F682F792FED
S11304D0CB01BA010E946303DC01CB01BE016F5F53
S11304E07F4F4AE050E00E94850483EA0E94530053
S11304F0CE0101960E94B40084ED0E945300C50110
S11305000E94B40083E00E94CE00DC01BD01882774
S113051077FD8095982F0E94960320E030E04AE70B
S113052054E40E94220420E030E045E654E40E94B2
S1130530FB02462F572F682F792FCB01BA010E9457
S11305406303DC01CB01BE016F5F7F4F4AE050E0E3
S11305500E94850483EE0E945300CE0101960E94FE
S1130560B4008FE39DE0A3E081509040A040E1F708
S113057000C0000081E00E945300C4010E94B40046
S113058084E00E94CE00DC01BD01882777FD8095C0
S1130590982F0E94960327ED33EA40E050E40E942E
S11305A0FB02462F572F682F792FCB01BA010E94E7
S11305B06303DC01CB01BE016F5F7F4F4AE050E073
S11305C00E9485048FE80E945300CE0101960E9488
S11305D0B40080EC0E9453000E9419018FE39DE057
S11305E0A3E081509040A040E1F700C0000081E00A
S11305F00E945300E5CE0CD0EBC0E3D040F0DAD03B
S113060030F021F45F3F19F0CCC0511115C1CFC0B7
S1130610F0D098F39923C9F35523B1F3951B550BE7
S1130620BB27AA2762177307840738F09F5F5F4FC1
S1130630220F331F441FAA1FA9F333D00E2E3AF002
S1130640E0E830D091505040E695001CCAF729D01C
S1130650FE2F27D0660F771F881FBB1F261737076B
S11306604807AB07B0E809F0BB0B802DBF01FF279B
S113067093585F4F2AF09E3F510568F092C0DCC04A
S11306805F3FECF3983EDCF3869577956795B795D5
S1130690F7959F5FC9F7880F911D9695879597F9F0
S11306A00895E1E0660F771F881FBB1F6217730769
S11306B08407BA0720F0621B730B840BBA0BEE1F7E
S11306C088F7E095089504D06894B111B5C00895F1
S11306D098D088F09F5790F0B92F9927B751A0F080
S11306E0D1F0660F771F881F991F1AF0BA95C9F7C2
S11306F012C0B13081F09FD0B1E008959CC0672F43
S1130700782F8827B85F39F0B93FCCF38695779571
S11307106795B395D9F73EF490958095709561955A
S11307207F4F8F4F9F4F0895E89409C097FB3EF485
S113073090958095709561957F4F8F4F9F4F99232A
S1130740A9F0F92F96E9BB279395F69587957795A8
S11307506795B795F111F8CFFAF4BB0F11F460FF68
S11307601BC06F5F7F4F8F4F9F4F16C0882311F0C0
S113077096E911C0772321F09EE8872F762F05C0D4
S1130780662371F096E8862F70E060E02AF09A956F
S1130790660F771F881FDAF7880F9695879597F964
S11307A0089597F99F6780E870E060E008959FEFEF
S11307B080EC089500240A941616170618060906F4
S11307C0089500240A9412161306140605060895C3
S11307D0092E0394000C11F4882352F0BB0F40F44B
S11307E0BF2B11F460FF04C06F5F7F4F8F4F9F4F8B
S11307F0089557FD9058440F551F59F05F3F71F00D
S11308004795880F97FB991F61F09F3F79F0879573
S11308100895121613061406551FF2CF4695F1DFFC
S113082008C0161617061806991FF1CF869571058C
S1130830610508940895E894BB2766277727CB01C0
S113084097F908950BD0C4CFB5DF28F0BADF18F0BC
S1130850952309F0A6CFABCF1124EECFCADFA0F3C6
S1130860959FD1F3950F50E0551F629FF001729F41
S1130870BB27F00DB11D639FAA27F00DB11DAA1F60
S1130880649F6627B00DA11D661F829F2227B00DAD
S1130890A11D621F739FB00DA11D621F839FA00D38
S11308A0611D221F749F3327A00D611D231F849F88
S11308B0600D211D822F762F6A2F11249F575040DF
S11308C08AF0E1F088234AF0EE0FFF1FBB1F661F7A
S11308D0771F881F91505040A9F79E3F510570F033
S11308E060CFAACF5F3FECF3983EDCF38695779513
S11308F06795B795F795E7959F5FC1F7FE2B880F2E
S1130900911D9695879597F90895FB019F01E894A9
S11309104230C4F04532B4F44A3029F497FB1EF453
S1130920909581959F4F642F77270E94B604805D30
S11309308A330CF0895D8193CB010097A1F716F4FB
S11309405DE251931082C9010C94A604DC01FC0100
S1130950672F71917723E1F7329704C07C916D93EF
S113096070836291AE17BF07C8F30895AA1BBB1B1F
S113097051E107C0AA1FBB1FA617B70710F0A61B9B
S1130980B70B881F991F5A95A9F780959095BC01BC
S10B0990CD010895F894FFCF96
S11309984572726F720048756D69646974793A00BA
S11309A82E002500416D6269656E742054656D7072
S11309B82E3A00430045433A2000536F696C207077
S11309C8483A2000536F696C204D6F6973747572CF
S11309D8653A2000416D6269656E74206C696768C8
S11309E8743A2000536F696C2074656D703A200066
S9030000FC
