:100000000C942A000C943F000C943F000C943F0089
:100010000C943F000C943F000C943F000C943F0064
:100020000C943F000C943F000C943F000C943F0054
:100030000C943F000C943F000C943F000C943F0044
:100040000C943F000C943F000C943F000C943F0034
:100050000C943F0011241FBECFE5D8E0DEBFCDBF1A
:1000600010E0A0E6B0E0EEE5F7E002C005900D92EA
:10007000AA38B107D9F70E9491000C94AD030C94F3
:1000800000003E9A86B1876886B9089597B1987F37
:10009000892B87B9369A3699FECF84B195B10895E8
:1000A0008AB188618AB980B5866880BD83E389B9E1
:1000B00008958CB95E9BFECF0895CF93DF93EC013A
:1000C0008881882361F021960E9459008FEC97E087
:1000D0000197F1F700C0000089918111F5CFDF9100
:1000E000CF9108955F9BFECF8CB10895EF92FF9260
:1000F0000F931F93CF93DF93E82EF92EC82FD92F9C
:100100008E010E94720089938D30D1F7F80111821F
:100110008E2D9F2DDF91CF911F910F91FF90EF902A
:100120000895CF93DF93CDB7DEB7C654D1090FB68C
:10013000F894DEBF0FBECDBF0E9441000E94500068
:100140008FEF87BB8E010B5E1F4F772473946E0178
:1001500029E2C20ED11C7E018DE3E80EF11C0F2EA8
:10016000F3E48F2E912CF02D0F2EF5E2AF2EB12C53
:10017000F02D0F2EF6E06F2EF02DCE0101960E948D
:100180007600FC012081222339F0DE0111963196A0
:100190002D9321912111FCCF80E00E944600BC01EB
:1001A000882777FD8095982F0E94750220E030E027
:1001B00040E253E40E94010320E030E040E85AE3CB
:1001C0000E9401030E944202DC01CB014AE050E0A0
:1001D000B8010E946D0378BA8FE39CE90197F1F7AB
:1001E00000C0000080E00E944600BC01882777FD27
:1001F0008095982F0E94750220E030E040E651E49F
:100200000E94010320E030EC4FE754E40E94DA0141
:100210000E944202DC01CB014AE050E0BE01615E77
:100220007F4F0E946D0378BA9FE7E8E3F1E09150B9
:10023000E040F040E1F700C0000080E00E9446008E
:10024000BC01882777FD8095982F0E94750220E0D9
:1002500030E048EC52E40E94010320E030EC48E436
:1002600054E40E94DA010E944202DC01CB014AE020
:1002700050E0B6010E946D0383E00E944600BC017D
:10028000882777FD8095982F0E94750220E030E046
:100290004AE754E40E94010320E030E045E654E4DC
:1002A0000E94DA010E944202DC01CB014AE050E0E8
:1002B000BE016D5C7F4F0E946D0383E088BB2FE71A
:1002C00088E391E0215080409040E1F700C00000B9
:1002D00080E00E944600BC01882777FD8095982F1A
:1002E0000E94750227ED33EA40E050E40E94DA01F3
:1002F0000E944202DC01CB014AE050E0B7010E94BB
:100300006D0360E670E0CE0101960E9464030D97D4
:1003100081F4D8010D900020E9F71197E3E6F0E0B1
:10032000862D01900D928A95E1F7C8010E945D002B
:1003300024CF69E670E0CE0101960E9464030D9718
:1003400029F4CE014F960E945D0017CF6CE670E055
:10035000CE0101960E9464030D9759F4F6010190B5
:100360000020E9F73197B182A082C6010E945D00AA
:1003700004CF6AE770E0CE0101960E9464030D97F6
:1003800059F4F70101900020E9F7319791828082BA
:10039000C7010E945D00F1CE64E870E0CE010196D5
:1003A0000E9464030D9709F0E8CECE01C3960E9427
:1003B0005D00E3CE0CD0EBC0E3D040F0DAD030F0FB
:1003C00021F45F3F19F0CCC0511115C1CFC0F0D05E
:1003D00098F39923C9F35523B1F3951B550BBB270C
:1003E000AA2762177307840738F09F5F5F4F220FB9
:1003F000331F441FAA1FA9F333D00E2E3AF0E0E8B2
:1004000030D091505040E695001CCAF729D0FE2FFD
:1004100027D0660F771F881FBB1F2617370748078F
:10042000AB07B0E809F0BB0B802DBF01FF27935845
:100430005F4F2AF09E3F510568F092C0DCC05F3FDD
:10044000ECF3983EDCF3869577956795B795F7952D
:100450009F5FC9F7880F911D9695879597F9089525
:10046000E1E0660F771F881FBB1F621773078407C1
:10047000BA0720F0621B730B840BBA0BEE1F88F7D0
:10048000E095089504D06894B111B5C0089598D04E
:1004900088F09F5790F0B92F9927B751A0F0D1F06D
:1004A000660F771F881F991F1AF0BA95C9F712C0F7
:1004B000B13081F09FD0B1E008959CC0672F782FB4
:1004C0008827B85F39F0B93FCCF386957795679563
:1004D000B395D9F73EF490958095709561957F4FCF
:1004E0008F4F9F4F0895E89409C097FB3EF4909575
:1004F0008095709561957F4F8F4F9F4F9923A9F0FD
:10050000F92F96E9BB279395F6958795779567958B
:10051000B795F111F8CFFAF4BB0F11F460FF1BC0CF
:100520006F5F7F4F8F4F9F4F16C0882311F096E962
:1005300011C0772321F09EE8872F762F05C0662310
:1005400071F096E8862F70E060E02AF09A95660FC9
:10055000771F881FDAF7880F9695879597F9089582
:1005600097F99F6780E870E060E008959FEF80EC66
:10057000089500240A941616170618060906089509
:1005800000240A9412161306140605060895092E6F
:100590000394000C11F4882352F0BB0F40F4BF2BDE
:1005A00011F460FF04C06F5F7F4F8F4F9F4F08951E
:1005B00057FD9058440F551F59F05F3F71F0479514
:1005C000880F97FB991F61F09F3F79F087950895F9
:1005D000121613061406551FF2CF4695F1DF08C018
:1005E000161617061806991FF1CF86957105610535
:1005F00008940895E894BB2766277727CB0197F9DD
:1006000008950BD0C4CFB5DF28F0BADF18F09523DA
:1006100009F0A6CFABCF1124EECFCADFA0F3959F90
:10062000D1F3950F50E0551F629FF001729FBB27D9
:10063000F00DB11D639FAA27F00DB11DAA1F649F85
:100640006627B00DA11D661F829F2227B00DA11D38
:10065000621F739FB00DA11D621F839FA00D611DBE
:10066000221F749F3327A00D611D231F849F600DDF
:10067000211D822F762F6A2F11249F5750408AF018
:10068000E1F088234AF0EE0FFF1FBB1F661F771FA4
:10069000881F91505040A9F79E3F510570F060CFE0
:1006A000AACF5F3FECF3983EDCF38695779567958C
:1006B000B795F795E7959F5FC1F7FE2B880F911DC2
:1006C0009695879597F90895FB01DC018D9101902E
:1006D00080190110D9F3990B08954532510520F482
:1006E000423010F00C947803FB011082CB01089586
:1006F000BB274A3031F4992322F4BDE290958195CD
:100700009F4F0C948403BB27FB015527AA27880F12
:10071000991FAA1FA41710F0A41B83955051B9F775
:10072000A05DAA3308F0A95DA193009779F7B111F4
:10073000B1931192CB010C949D03DC01FC01672F56
:1007400071917723E1F7329704C07C916D937083A8
:0E0750006291AE17BF07C8F30895F894FFCF6B
:10075E00656300206D532F6D00706800736F696CB8
:10076E005F6D6F69737475726500736F696C5F741A
:0A077E00656D70006C696768740017
:00000001FF
